{
  "_format": "hh-sol-artifact-1",
  "contractName": "ReclaimVerifier",
  "sourceName": "contracts/ReclaimVerifier.sol",
  "abi": [
    {
      "anonymous": false,
      "inputs": [
        {
          "indexed": true,
          "internalType": "address",
          "name": "user",
          "type": "address"
        },
        {
          "indexed": false,
          "internalType": "bool",
          "name": "isEligible",
          "type": "bool"
        }
      ],
      "name": "AirdropEligibilityUpdated",
      "type": "event"
    },
    {
      "anonymous": false,
      "inputs": [
        {
          "indexed": true,
          "internalType": "address",
          "name": "user",
          "type": "address"
        },
        {
          "indexed": true,
          "internalType": "uint256",
          "name": "providerId",
          "type": "uint256"
        }
      ],
      "name": "ProofSubmitted",
      "type": "event"
    },
    {
      "anonymous": false,
      "inputs": [
        {
          "indexed": true,
          "internalType": "address",
          "name": "user",
          "type": "address"
        },
        {
          "indexed": true,
          "internalType": "uint256",
          "name": "providerId",
          "type": "uint256"
        }
      ],
      "name": "UserVerified",
      "type": "event"
    },
    {
      "inputs": [
        {
          "internalType": "string",
          "name": "name",
          "type": "string"
        }
      ],
      "name": "addProvider",
      "outputs": [],
      "stateMutability": "nonpayable",
      "type": "function"
    },
    {
      "inputs": [
        {
          "internalType": "address",
          "name": "userAddress",
          "type": "address"
        }
      ],
      "name": "checkAirdropEligibility",
      "outputs": [
        {
          "internalType": "bool",
          "name": "",
          "type": "bool"
        }
      ],
      "stateMutability": "view",
      "type": "function"
    },
    {
      "inputs": [],
      "name": "getProviders",
      "outputs": [
        {
          "components": [
            {
              "internalType": "uint256",
              "name": "id",
              "type": "uint256"
            },
            {
              "internalType": "string",
              "name": "name",
              "type": "string"
            }
          ],
          "internalType": "struct ReclaimVerifier.Provider[]",
          "name": "",
          "type": "tuple[]"
        }
      ],
      "stateMutability": "view",
      "type": "function"
    },
    {
      "inputs": [
        {
          "internalType": "address",
          "name": "userAddress",
          "type": "address"
        }
      ],
      "name": "getUserVerifications",
      "outputs": [
        {
          "internalType": "bool[]",
          "name": "",
          "type": "bool[]"
        }
      ],
      "stateMutability": "view",
      "type": "function"
    },
    {
      "inputs": [],
      "name": "getUsers",
      "outputs": [
        {
          "internalType": "address[]",
          "name": "",
          "type": "address[]"
        }
      ],
      "stateMutability": "view",
      "type": "function"
    },
    {
      "inputs": [],
      "name": "nextProviderId",
      "outputs": [
        {
          "internalType": "uint256",
          "name": "",
          "type": "uint256"
        }
      ],
      "stateMutability": "view",
      "type": "function"
    },
    {
      "inputs": [
        {
          "internalType": "uint256",
          "name": "",
          "type": "uint256"
        }
      ],
      "name": "providers",
      "outputs": [
        {
          "internalType": "uint256",
          "name": "id",
          "type": "uint256"
        },
        {
          "internalType": "string",
          "name": "name",
          "type": "string"
        }
      ],
      "stateMutability": "view",
      "type": "function"
    },
    {
      "inputs": [],
      "name": "requiredVerifications",
      "outputs": [
        {
          "internalType": "uint256",
          "name": "",
          "type": "uint256"
        }
      ],
      "stateMutability": "view",
      "type": "function"
    },
    {
      "inputs": [
        {
          "internalType": "uint256",
          "name": "providerId",
          "type": "uint256"
        }
      ],
      "name": "submitProof",
      "outputs": [],
      "stateMutability": "nonpayable",
      "type": "function"
    },
    {
      "inputs": [
        {
          "internalType": "uint256",
          "name": "",
          "type": "uint256"
        }
      ],
      "name": "userAddresses",
      "outputs": [
        {
          "internalType": "address",
          "name": "",
          "type": "address"
        }
      ],
      "stateMutability": "view",
      "type": "function"
    },
    {
      "inputs": [
        {
          "internalType": "address",
          "name": "",
          "type": "address"
        }
      ],
      "name": "users",
      "outputs": [
        {
          "internalType": "address",
          "name": "userAddress",
          "type": "address"
        },
        {
          "internalType": "bool",
          "name": "isEligibleForAirdrop",
          "type": "bool"
        }
      ],
      "stateMutability": "view",
      "type": "function"
    },
    {
      "inputs": [
        {
          "internalType": "address",
          "name": "userAddress",
          "type": "address"
        },
        {
          "internalType": "uint256",
          "name": "providerId",
          "type": "uint256"
        }
      ],
      "name": "verifyUser",
      "outputs": [],
      "stateMutability": "nonpayable",
      "type": "function"
    }
  ],
  "bytecode": "0x60806040526001600355600260045534801561001a57600080fd5b50610d928061002a6000396000f3fe608060405234801561001057600080fd5b50600436106100b35760003560e01c806351a8dbcf1161007157806351a8dbcf1461016e578063869a5e2b14610177578063a87430ba1461018a578063afff7966146101df578063b047fe1a146101f2578063edc922a91461023157600080fd5b8062ce8e3e146100b85780630e1b8db4146100d65780631469fab7146100ed57806332d345da1461010d578063502c9bd51461012257806350f3fc811461014d575b600080fd5b6100c0610246565b6040516100cd9190610912565b60405180910390f35b6100df60045481565b6040519081526020016100cd565b6101006100fb36600461097b565b6102a8565b6040516100cd919061099d565b61012061011b3660046109d7565b61037c565b005b610135610130366004610a01565b61048f565b6040516001600160a01b0390911681526020016100cd565b61016061015b366004610a01565b6104b9565b6040516100cd929190610a60565b6100df60035481565b610120610185366004610a01565b61055e565b6101c061019836600461097b565b600160205260009081526040902080546002909101546001600160a01b039091169060ff1682565b604080516001600160a01b0390931683529015156020830152016100cd565b6101206101ed366004610a97565b610656565b61022161020036600461097b565b6001600160a01b031660009081526001602052604090206002015460ff1690565b60405190151581526020016100cd565b6102396106ac565b6040516100cd9190610b48565b6060600280548060200260200160405190810160405280929190818152602001828054801561029e57602002820191906000526020600020905b81546001600160a01b03168152600190910190602001808311610280575b5050505050905090565b6060600060016003546102bb9190610bd2565b67ffffffffffffffff8111156102d3576102d3610a81565b6040519080825280602002602001820160405280156102fc578160200160208202803683370190505b50905060015b600354811015610375576001600160a01b038416600090815260016020818152604080842085855283019091529091205460ff169083906103439084610bd2565b8151811061035357610353610beb565b911515602092830291909101909101528061036d81610c01565b915050610302565b5092915050565b6001600160a01b03828116600090815260016020526040902054166103d95760405162461bcd60e51b815260206004820152600e60248201526d155cd95c881b9bdd08199bdd5b9960921b60448201526064015b60405180910390fd5b60008181526020819052604081205490036104295760405162461bcd60e51b815260206004820152601060248201526f24b73b30b634b210383937bb34b232b960811b60448201526064016103d0565b6001600160a01b03821660008181526001602081815260408084208685528301909152808320805460ff1916909217909155518392917f22b3126528cda4618d13b6945f5e96fe53a5125f386aa591ee89134e2681c62191a361048b82610821565b5050565b6002818154811061049f57600080fd5b6000918252602090912001546001600160a01b0316905081565b600060208190529081526040902080546001820180549192916104db90610c1a565b80601f016020809104026020016040519081016040528092919081815260200182805461050790610c1a565b80156105545780601f1061052957610100808354040283529160200191610554565b820191906000526020600020905b81548152906001019060200180831161053757829003601f168201915b5050505050905082565b60008181526020819052604081205490036105ae5760405162461bcd60e51b815260206004820152601060248201526f24b73b30b634b210383937bb34b232b960811b60448201526064016103d0565b336000908152600160205260409020546001600160a01b0316610626576002805460018082019092557f405787fa12a823e0f2b7631cc41b3ba8828b3321ca811111fa75cd3aa3bb5ace018054336001600160a01b031991821681179092556000828152602093909352604090922080549092161790555b604051819033907f31dcad4840c3951058f13581a07253b4b2bf340b350e1d7ba282f33140a4835b90600090a350565b604080518082018252600354808252602080830185815260009283529082905292902081518155915190919060018201906106919082610c9c565b505060038054915060006106a483610c01565b919050555050565b6060600060016003546106bf9190610bd2565b67ffffffffffffffff8111156106d7576106d7610a81565b60405190808252806020026020018201604052801561071d57816020015b6040805180820190915260008152606060208201528152602001906001900390816106f55790505b50905060015b60035481101561081b5760008181526020818152604091829020825180840190935280548352600181018054919284019161075d90610c1a565b80601f016020809104026020016040519081016040528092919081815260200182805461078990610c1a565b80156107d65780601f106107ab576101008083540402835291602001916107d6565b820191906000526020600020905b8154815290600101906020018083116107b957829003601f168201915b505050505081525050826001836107ed9190610bd2565b815181106107fd576107fd610beb565b6020026020010181905250808061081390610c01565b915050610723565b50919050565b600060015b60035481101561087e576001600160a01b0383166000908152600160208181526040808420858552909201905290205460ff161561086c578161086881610c01565b9250505b8061087681610c01565b915050610826565b506004546001600160a01b038316600090815260016020526040902060020154908210159060ff161515811461090d576001600160a01b038316600081815260016020908152604091829020600201805460ff191685151590811790915591519182527f57761d8ce1cebbaf15f6fd74b248a1aba90fe19889710390a3a0a433ee443314910160405180910390a25b505050565b6020808252825182820181905260009190848201906040850190845b818110156109535783516001600160a01b03168352928401929184019160010161092e565b50909695505050505050565b80356001600160a01b038116811461097657600080fd5b919050565b60006020828403121561098d57600080fd5b6109968261095f565b9392505050565b6020808252825182820181905260009190848201906040850190845b818110156109535783511515835292840192918401916001016109b9565b600080604083850312156109ea57600080fd5b6109f38361095f565b946020939093013593505050565b600060208284031215610a1357600080fd5b5035919050565b6000815180845260005b81811015610a4057602081850181015186830182015201610a24565b506000602082860101526020601f19601f83011685010191505092915050565b828152604060208201526000610a796040830184610a1a565b949350505050565b634e487b7160e01b600052604160045260246000fd5b600060208284031215610aa957600080fd5b813567ffffffffffffffff80821115610ac157600080fd5b818401915084601f830112610ad557600080fd5b813581811115610ae757610ae7610a81565b604051601f8201601f19908116603f01168101908382118183101715610b0f57610b0f610a81565b81604052828152876020848701011115610b2857600080fd5b826020860160208301376000928101602001929092525095945050505050565b60006020808301818452808551808352604092508286019150828160051b87010184880160005b83811015610bae57888303603f19018552815180518452870151878401879052610b9b87850182610a1a565b9588019593505090860190600101610b6f565b509098975050505050505050565b634e487b7160e01b600052601160045260246000fd5b81810381811115610be557610be5610bbc565b92915050565b634e487b7160e01b600052603260045260246000fd5b600060018201610c1357610c13610bbc565b5060010190565b600181811c90821680610c2e57607f821691505b60208210810361081b57634e487b7160e01b600052602260045260246000fd5b601f82111561090d57600081815260208120601f850160051c81016020861015610c755750805b601f850160051c820191505b81811015610c9457828155600101610c81565b505050505050565b815167ffffffffffffffff811115610cb657610cb6610a81565b610cca81610cc48454610c1a565b84610c4e565b602080601f831160018114610cff5760008415610ce75750858301515b600019600386901b1c1916600185901b178555610c94565b600085815260208120601f198616915b82811015610d2e57888601518255948401946001909101908401610d0f565b5085821015610d4c5787850151600019600388901b60f8161c191681555b5050505050600190811b0190555056fea26469706673582212208a3c054d693616915e7d8e5b122f6a8646203639bbb94344bf114452e131821c64736f6c63430008140033",
  "linkReferences": {},
  "deployedLinkReferences": {}
}